:10000000803102288731E82FA03021009E009F0117
:100010009B019C0109309D000800F1007108F0006F
:10002000F00DF00D21001D087006833970069D004B
:100030001D1408002000A0002008031920282128F2
:100040003528F71F2428252835287409A2007509AA
:10005000A3007609A4007709A500A20A0319A30A40
:100060000319A40A0319A50A3D287708A5007608F4
:10007000A4007508A3007408A2007708760475042C
:100080007404031D442845284E280030F700003032
:10009000F6000030F5000030F400C6289630F80075
:1000A0007808A1005E280130F8007808A107013027
:1000B000A536A40CA30CA20C890B5828FE302505EC
:1000C000031D63286428532878280130F800780835
:1000D000A1070130A2070030A33D0030A43D00304D
:1000E000A53D0130A536A40CA30CA20C890B7228E7
:1000F000FF302505031D7D287E28652888280130CE
:10010000A1020130A235A30DA40DA50D890B8228F3
:10011000A41B8B288C2892280230210203189128D6
:1001200092287F282118952896289E28FF30A2051E
:10013000FF30A3057F30A405FF30A5050310A10CF7
:100140002108F800F901FA01FB011830F835F90D22
:10015000FA0DFB0D890BA6287808A2047908A304E0
:100160007A08A4047B08A50420080319B828B92834
:10017000BE28F71FBC28BD28BE28A5172508F700F4
:100180002408F6002308F5002208F40008002100E6
:10019000B600B401B50120005F082100CA002000AC
:1001A0005E082100C90020005D082100C800200071
:1001B0005C082100C7004A082000C300210049084C
:1001C0002000C200210048082000C100210047088B
:1001D0002000C0000030C7000030C6000030C5005D
:1001E0000030C4009431422480310318F828F928E3
:1001F000122901302100B4000030B5004A08F30094
:100200004908F2004808F1004708F0008831002052
:10021000803173082100CA007208C9007108C80043
:100220007008C7002100CD01CE0122004B0821003B
:10023000BA0022004A082100B90034083504031D21
:100240002229232927296D1D2629272945293408F4
:100250003504031D2C292D2932292B30A000003014
:10026000A10036292D30A0000030A1002008200078
:10027000E10061082300A00001302100CD0700301B
:10028000CE3DFF30B907FF30BA3D4A08F3004908B8
:10029000F2004808F1004708F0009331C323803191
:1002A00070037104031D55295629992920006008FF
:1002B000BF3EE100FF3003180030E2000030620270
:1002C0001A300319610203186629672972291D3043
:1002D000F0009830F10021004D08A03E9F31DF274B
:1002E00080317C292530F0009830F10021004D0844
:1002F000A03E9F31DF278031FD302100B907FF305C
:10030000BA3DA0302000E1006108A40021003A08B5
:100310002000A600210039082000A5002100360891
:1003200092312D22803120002508DD002408DC00D8
:10033000E72F21004A08F3004908F2004808F100BD
:100340004708F0009331C323803170087104031D06
:10035000AA29AB29EE2920006008BF3EE100FF304A
:1003600003180030E200003062021A300319610203
:100370000318BB29BC29C7292130F0009830F100AF
:1003800021004D08A03E9F31DF278031D12929303F
:10039000F0009830F10021004D08A03E9F31DF278A
:1003A0008031FD302100B907FF30BA3DA030200078
:1003B000E1006108A40021003A082000A600210005
:1003C00039082000A5002100360892312D22803105
:1003D00020002508DD002408DC00E72F3F30210045
:1003E000D2008030D1000030D0000030CF00CB01EF
:1003F000CC014A08F3004908F2004808F100470818
:10040000F0000030F7000030F6000030F50000305A
:10041000F4009031DB20803103180F2A102AC52AFE
:10042000412A41302000A9002030A8000030A70058
:100430000030A600210052082000AD002100510824
:100440002000AC00210050082000AB0021004F0824
:100450002000AA008B310F238031200029082100C1
:10046000D200200028082100D10020002708210008
:10047000D000200026082100CF000130CB0700303B
:10048000CC3D21004A082000C3002100490820007B
:10049000C200210048082000C100210047082000B8
:1004A000C0004130A9002030A8000030A700003073
:1004B000A600210052082000AD00210051082000B4
:1004C000AC00210050082000AB0021004F082000A4
:1004D000AA008B310F23803120002908C70028088B
:1004E000C6002708C5002608C40094314224803184
:1004F00003187B2A7C2A112A9E2A4130F3002030DF
:10050000F2000030F1000030F00021005208F70046
:100510005108F6005008F5004F08F40096314C26BB
:10052000803173082100D2007208D1007108D00018
:100530007008CF00FF30CB07FF30CC3D21004A08C8
:100540002000C300210049082000C2002100480803
:100550002000C100210047082000C00021005208EF
:100560002000C700210051082000C60021005008CB
:100570002000C50021004F082000C400943142240F
:100580008031031CC42AC52A7D2A20006008E100AE
:10059000E2016108F6006208F7009E31E42680312E
:1005A00076082000E30063082100BC003C0820001E
:1005B000E10061082100BB0067303C06031DE12A11
:1005C000E22A072B6B086C04031DE72AE82AEC2AB1
:1005D0000130EB000030EC006C08803A2000E100B4
:1005E00080306102031DF72A013021006B020318DD
:1005F000FA2AFB2A012B06302100B7000030B80090
:100600000C2B21006C08B8006B08B7000C2BEC1BFE
:100610000A2B0B2BFB2A012B67303C06031D112BE9
:10062000122B4A2B4C08803A2000E1007F306102F7
:10063000031D1D2BFC3021004B02031C202B212B02
:10064000442B21003708FF3E2000E100FF3021004D
:10065000383D2000E2006208803AE30021004C08A7
:10066000803A20006302031D392B21004B08200033
:100670006102031C3C2B3D2B442B66302000E10023
:1006800061082100BB004A2B65302000E1006108B1
:100690002100BB003808AD003708AC0067303C06CD
:1006A000031D532B542B5E2B66303B06031D592B29
:1006B0005A2B622BCC1F5D2B5E2B622B0130AC07BB
:1006C0000030AD3D66303B06031D672B682B802B49
:1006D000CC1F6B2B6C2B762B3F30D2008030D1009F
:1006E0000030D0000030CF00CB01CC0167303C0699
:1006F00003197B2B7C2B802B4B08AC074C08AD3DA2
:10070000C501C6014A08C0004908BF004808BE002C
:100710004708BD005208B1005108B0005008AF00B2
:100720004F08AE00412C21005208F3005108F2009E
:100730005008F1004F08F0004008F7003F08F600AD
:100740003E08F5003D08F40096314C2680317308D0
:100750002000B0007208AF007108AE007008AD0054
:10076000953161258031200030082100C40020002F
:100770002F082100C30020002E082100C200200005
:100780002D082100C1004408F3004308F20042088C
:10079000F1004108F00093314F23803171082100AE
:1007A000B3007008B20044082000AD0021004308E7
:1007B0002000AC00210042082000AB0021004108CD
:1007C0002000AA00210052082000A90021005108A1
:1007D0002000A800210050082000A70021004F0899
:1007E0002000A6008B310F23803120002908D7007C
:1007F0002808D6002708D5002608D4002100400884
:100800002000DB0021003F082000DA0021003E0824
:100810002000D90021003D082000D8009F319E27EC
:100820008031200057082100C00020005608210018
:10083000BF00200055082100BE0020005408210000
:10084000BD004130F3002030F2000030F1000030F4
:10085000F0005208F7005108F6005008F5004F0864
:10086000F40096314C26803173082100D2007208C2
:10087000D1007108D0007008CF000130C5070030EA
:10088000C63D4608803A2000E10021002D08803A4C
:1008900020006102031D4F2C21002C084502031C7F
:1008A000522C532C932B40302000A900A030A800DC
:1008B0000030A7000030A600210052082000AD0043
:1008C000210051082000AC00210050082000AB009E
:1008D00021004F082000AA008B310F238031200017
:1008E00029082100C400200028082100C30020009E
:1008F00027082100C200200026082100C10040086E
:100900002000C30021003F082000C20021003E0853
:100910002000C10021003D082000C0002100440843
:100920002000C700210043082000C6002100420823
:100930002000C500210041082000C4009431422459
:1009400080310318A42CA52CAF2C00302100C4004A
:100950000030C3000030C2000030C100D42C2100A0
:100960004008F3003F08F2003E08F1003D08F000A7
:100970004408F7004308F6004208F5004108F40077
:100980009031DB208031031CC62CC72CD42C2100D5
:100990003218CB2CCC2CD42C0030C4000030C30037
:1009A0000030C2000030C100210044082000C30014
:1009B000210043082000C200210042082000C1009D
:1009C000210041082000C00021004A082000C70083
:1009D000210049082000C600210048082000C50069
:1009E000210047082000C4008831D7208031200032
:1009F00043082100C000200042082100BF00200061
:100A000041082100BE00200040082100BD00400830
:100A10002000C30021003F082000C20021003E0842
:100A20002000C10021003D082000C0004130A90085
:100A30002030A8000030A7000030A60021003108B7
:100A40002000AD00210030082000AC0021002F085C
:100A50002000AB0021002E082000AA008B310F23BC
:100A6000803120002908C7002808C6002708C500D3
:100A70002608C400943142248031031C402D412DAE
:100A80007C2D01302100CB070030CC3D41302000CF
:100A9000A9002030A8000030A7000030A6002100E7
:100AA00031082000AD00210030082000AC002100FA
:100AB0002F082000AB0021002E082000AA008B3157
:100AC0000F238031200029082100B10020002808D0
:100AD0002100B000200027082100AF0020002608D8
:100AE0002100AE0066303B06031D772D782D7C2D4E
:100AF0000130AC070030AD3D21003108D200300894
:100B0000D1002F08D0002E08CF0065303B06031916
:100B10008A2D8B2D902D4C08AB004B08AA00922DEE
:100B2000AA01AB01A801A901A601A701C501C6013F
:100B3000BD2E21005208F3005108F2005008F100C8
:100B40004F08F0004008F7003F08F6003E08F500A7
:100B50003D08F40096314C26803173082000B00027
:100B60007208AF007108AE007008AD0095316125C4
:100B70008031200030082100C40020002F0821000F
:100B8000C30020002E082100C20020002D082100F3
:100B9000C1004408F3004308F2004208F100410894
:100BA000F00093314F23803171082100B3007008A9
:100BB000B2006D1ADC2DDD2DF22D32083304031D39
:100BC000E22DE32DF22D67303C06031DE82DE92DC3
:100BD000F22DAB1FEC2DED2DF22D0130A6070030CC
:100BE000A73D4B2E28082904031DF72DF82D2F2E85
:100BF000AB1FFB2DFC2D2F2E2E302000E1002100FD
:100C00004D08A03E86000130870020006108810069
:100C100001302100CD070030CE3DFF30B907FF3055
:100C2000BA3D0130A8000030A9002F2E303020003E
:100C3000E10021004D08A03E860001308700200021
:100C40006108810001302100CD070030CE3DFF302A
:100C5000B907FF30BA3DFF30A607FF30A73D260891
:100C60002704031D342E352E162E3208303E200068
:100C7000E10021004D08A03E8600013087002000E1
:100C80006108810001302100CD070030CE3DFF30EA
:100C9000B907FF30BA3D44082000AD0021004308E9
:100CA0002000AC00210042082000AB0021004108D8
:100CB0002000AA00210052082000A90021005108AC
:100CC0002000A800210050082000A70021004F08A4
:100CD0002000A6008B310F23803120002908D70087
:100CE0002808D6002708D5002608D400210040088F
:100CF0002000DB0021003F082000DA0021003E0830
:100D00002000D90021003D082000D8009F319E27F7
:100D10008031200057082100C00020005608210023
:100D2000BF00200055082100BE002000540821000B
:100D3000BD004130F3002030F2000030F1000030FF
:100D4000F0005208F7005108F6005008F5004F086F
:100D5000F40096314C26803173082100D2007208CD
:100D6000D1007108D0007008CF00FF30AA07FF3013
:100D7000AB3D0130C5070030C63D4608803A200033
:100D8000E10021002D08803A20006102031DCB2ED6
:100D900021002C0845020318CE2ECF2EDF2E210075
:100DA0004E08803A2000E10080306102031DDB2EF6
:100DB0004B3021004D02031CDE2EDF2E992D210029
:100DC00028082904031DE52EE62EFB2E6D1EE92EB4
:100DD000EA2EFB2E2E302000E10021004D08A03E1F
:100DE0008600013087002000610881000130210069
:100DF000CD070030CE3D4D08A03E86000130870073
:100E0000810165303B06031D062F072FD02F4F3081
:100E1000C5000030C6004508A03E860001308700AE
:100E20008101B401B501CC1F162F172F202F0130DF
:100E3000B4000030B500CB09CC09CB0A0319CC0AA9
:100E40000230B7000030B8005B2FFF302100C5072B
:100E5000FF30C63D0A30F0000030F1004C08F300CE
:100E60004B08F2009131292180317008303E20007A
:100E7000E10021004508A03E8600013087002000E7
:100E8000610881000A30F0000030F10021004C08B8
:100E9000F3004B08F2009231892280317108210061
:100EA000CC007008CB00FF30B707FF30B83DFF30F3
:100EB000B907FF30BA3D4B084C04031D602F612F6A
:100EC000252F3808803A2000E10080306102031DA0
:100ED0006C2F01302100370203186F2F702F252F40
:100EE000FF302100C507FF30C63D34083504031D1F
:100EF0007A2F7B2F802F2B30A2000030A300842F6D
:100F00002D30A2000030A30022082000E1002100C3
:100F10004508A03E8600013087002000610881005E
:100F2000FF302100B907FF30BA3DFF30C507FF3061
:100F3000C63D20006008BF3EE100FF3003180030CE
:100F4000E200003062021A3003196102031CA92F6B
:100F5000AA2FB02F65302100A4000030A500B52FC6
:100F600045302100A4000030A50024082000E10045
:100F700021004508A03E860001308700200061085E
:100F80008100FF302100B907FF30BA3D4508A03E7F
:100F9000F0000130F1004D08A03E9F31DF27803185
:100FA000A0302000E1006108A40021003A082000E0
:100FB000A600210039082000A50021003608923142
:100FC0002D22803120002508DD002408DC000800E7
:100FD0002100EB01EC01ED01EE013830840001301D
:100FE000850016309E31DE268731A0308400013026
:100FF000850050309E31DE2687312000883142281E
:1010000073087204710470040319072808280A2859
:101010008030F30608002100DE0020006C0821006B
:10102000E00020006B082100DF002200C801C90198
:101030002F28DF302000EE006E08E4006D08EF007E
:101040006F08E50021005E088D316625883120009B
:1010500064082200C807200065082200C93D21005D
:101060005F088400600885001200031D38283928B5
:101070001928220049082000EC002200480820001E
:10108000EB00080080310420883190311C20883129
:101090002C3086000130870008302100E700003046
:1010A0001E00E70B50289E31D9268831023080314E
:1010B0000D208831BD302000C3004C30C200CC3040
:1010C000C100CD30C0003E30A900FA30A8003E304B
:1010D000A7009130A60002309E31FB2688317008AF
:1010E0002100E7007108E800E901EA016A08F70059
:1010F0006908F6006808F5006708F40000308031E0
:101100001A20883177082000AD007608AC007508F9
:10111000AB007408AA008B310F2388312000290806
:10112000C7002808C6002708C5002608C400883163
:10113000D7208831200043082200B7002000420851
:101140002200B600200041082200B500200040081F
:101150002200B40000302100E1009830E2002200BB
:1011600037082100E600220036082100E5002200B1
:1011700035082100E400220034082100E3002C306F
:1011800090318A2088310F30F5009830F600F70151
:101190009231E82288312C30F5000130F600F70159
:1011A000F70A9231E8228831532880310228200042
:1011B00043088039C8004808D0004335C8004808B3
:1011C000D200C21FE428E528E62852145208031969
:1011D000EA28EB28FB28520A031DEF28F028F828FC
:1011E0000030C3000030C2000030C1000030C00039
:1011F000C217C30103290030C3000030C200003011
:10120000C1000030C00047088039C8004808D1003C
:101210005108500603190D290E290F29501747357B
:10122000C8004808D100C61F1629172918295114CB
:10123000510803191C291D292D29510A031D212993
:1012400022292A290030C7000030C6000030C5001E
:101250000030C400C617C70135290030C700003070
:10126000C6000030C5000030C40052085102031807
:101270003A293B297F29501F3E293F2943298030A5
:10128000C8004808D0065208C8004808D3005108D2
:10129000C8004808D2005308C8004808D1004008D8
:1012A000C8004808D3004408C8004808C0005308D4
:1012B000C8004808C4004108C8004808D3004508D1
:1012C000C8004808C1005308C8004808C5004208C3
:1012D000C8004808D3004608C8004808C2005308A0
:1012E000C8004808C6004308C8004808D30047089B
:1012F000C8004808C3005308C8004808C700D30105
:101300005108C800C9014908CB0052084802CA0068
:10131000031CCB034B08803ACC0080304C02031DE9
:1013200093291A304A02031C96299729CF292000B5
:101330004308420441044004031D9F29A1290130B0
:10134000A2290030C8004808D3000030C300003094
:10135000C2000030C1000030C0005108C800480879
:10136000D200D629531CB529B629BC2953360138D9
:10137000C8004808D300BE290310D30C401CC12963
:10138000C229C329D3170130C800C337C20CC10C0E
:10139000C00CC80BC5290130C8004808D20720007E
:1013A00051085202031CD529D629B229501BD9292C
:1013B000DA29122A5208031DDE29DF29E829003024
:1013C000C3000030C2000030C1000030C0000E2B4E
:1013D0004408C0074508C13D4608C23D4708C33D13
:1013E000431CF329F4299E2A531CF729F829FE29C6
:1013F00053360138C8004808D300002A0310D30C24
:10140000401C032A042A052AD3170130C800C33719
:10141000C20CC10CC00CC80B072A0130C800480818
:10142000D2079E2A4308803AC8004708803A4802FB
:10143000031D242A46084202031D242A45084102AE
:10144000031D242A440840020318272A282A602A58
:10145000FF30C800FF30C900FF30CA00FF30CB00AA
:1014600040084402CC004108453BCD004208463BC1
:10147000CE004308473BCF004C08C8074D08C93D84
:101480004E08CA3D4F08CB3D4B08C3004A08C20076
:101490004908C1004808C0008030C8004808D0068C
:1014A000D309D30A5308031D562A572A682A013044
:1014B000C0070030C13D0030C23D0030C33D682A46
:1014C0004408C0024508C13B4608C23B4708C33B2D
:1014D0004308420441044004031D6F2A702A9A2ADB
:1014E0005308031D742A752A9A2A0030C30000305D
:1014F000C2000030C1000030C0000E2B0130C035EA
:10150000C10DC20DC30D890B7F2AD31F882A892ADA
:101510008A2A4014531C8D2A8E2A912A0314D30D33
:10152000932A0310D30D52080319972A982A9A2A4E
:101530000130D202C21F9D2A9E2A7E2AD101D31FCA
:10154000A22AA32AB12A53087F390319A82AA92A53
:10155000AC2AD101D10AB12A401CAF2AB02AB12A43
:10156000A92A51080319B52AB62AE32A0130C0076F
:101570000030C13D0030C23D0030C33D431CC12A94
:10158000C22AE32A4008C8004108C9004208CA002C
:101590004308CB000130CC00CB37CA0CC90CC80CB7
:1015A000CC0BCC2A4B08C3004A08C2004908C10032
:1015B0004808C000520A0319DE2ADF2AE32A013054
:1015C000C8004808D207520A0319E72AE82AED2A78
:1015D0005208031DEC2AED2AFB2A0030C30000301C
:1015E000C2000030C1000030C0005208031DF92ABB
:1015F000FA2AFB2AD001521CFE2AFF2A012BC2170D
:10160000052B7F30C8004808C2055236C80048087C
:10161000C300D01F0C2B0D2B0E2BC317080020006E
:1016200029088039AE002E08B3002935AE002E08F7
:10163000B900A81F1C2B1D2B1E2B391439080319A8
:10164000222B232B322B390A031D272B282B302B3F
:101650000030A9000030A8000030A7000030A6002C
:10166000A8173A2B0030A9000030A8000030A700CE
:101670000030A6002D088039AE002E08B3062D35A7
:10168000AE002E08B800AC1F462B472B482B381451
:10169000380803194C2B4D2B5C2B380A031D512B9A
:1016A000522B5A2B0030AD000030AC000030AB00A4
:1016B0000030AA00AC17642B0030AD000030AC0045
:1016C0000030AB000030AA0038080319682B692BE2
:1016D0006E2B3908031D6D2B6E2B772B0030A90064
:1016E0000030A8000030A7000030A600652D2608B5
:1016F000AE002E08F0002C0890313F208B3171088D
:101700002000BF007008BE003E08AE00AF01B0016F
:10171000B1013108B7003008B6002F08B5002E0817
:10172000B4003F08AE00AF01B001B1013108BD0007
:101730003008BC002F08BB002E08BA002708AE00F6
:101740002E08F0002B0890313F208B3171082000CB
:10175000BF007008BE003E08AE00AF01B001B1018D
:101760002E08B4072F08B53D3008B63D3108B73D07
:101770003F08AE00AF01B001B1012E08BA072F0833
:10178000BB3D3008BC3D3108BD3D2808AE002E08E9
:10179000F0002A0890313F208B3171082000BF00F3
:1017A0007008BE003E08AE00AF01B001B1012E08C6
:1017B000B4072F08B53D3008B63D3108B73D3F08A6
:1017C000AE00AF01B001B1012E08BA072F08BB3D32
:1017D0003008BC3D3108BD3D0830B435B50DB60DFF
:1017E000B70D890BED2B2708AE002E08F0002A0854
:1017F00090313F208B3171082000BF007008BE007F
:101800003E08B4073F08B53D0030B63DB73D260859
:10181000AE002E08F0002B0890313F208B3171086C
:101820002000BF007008BE003E08B4073F08B53D69
:101830000030B63DB73D0830B435B50DB60DB70D27
:10184000890B1C2C2608AE002E08F0002A089031C7
:101850003F208B3171082000BF007008BE003E0899
:10186000B4073F08B53D0030B63DB73D2708AE0090
:101870002E08F0002C0890313F208B317108200099
:10188000BF007008BE003E08BA073F08BB3D0030ED
:10189000BC3DBD3D2808AE002E08F0002B0890315D
:1018A0003F208B3171082000BF007008BE003E0849
:1018B000BA073F08BB3D0030BC3DBD3D2808AE0027
:1018C0002E08F0002C0890313F208B317108200049
:1018D000BF007008BE003E08AE003F08AF00B00178
:1018E000B1010830AE35AF0DB00DB10D890B722CC2
:1018F0002E08BA072F08BB3D3008BC3D3108BD3D5E
:101900003408AE003508AF003608B0003708B10023
:101910001830B136B00CAF0CAE0C890B892C2E08E8
:10192000BA072F08BB3D3008BC3D3108BD3D08302B
:10193000B435B50DB60DB70D890B982C390838079D
:10194000AE00AF01AF0D2E08823EBE00FF302F3D2E
:10195000BF00C12C0130BA35BB0DBC0DBD0D890BCC
:10196000AB2CB71FB42CB52CB62C3A140130B435BF
:10197000B50DB60DB70D890BB72CFF30BE07FF3084
:10198000BF3DBC1FC42CC52CAA2CB801B71FC92C45
:10199000CA2CE62CFF303405AE00FF303505AF0011
:1019A000FF303605B0007F303705B1003108300414
:1019B0002F042E040319DD2CDE2CE12CB801B80A0B
:1019C000E62C3A1CE42CE52CE62CDE2C3808031916
:1019D000EA2CEB2C132D0130BA070030BB3D003050
:1019E000BC3D0030BD3D3D1CF62CF72C132D3A08B4
:1019F000AE003B08AF003C08B0003D08B10001302C
:101A0000B200B137B00CAF0CAE0CB20B012D3108E7
:101A1000BD003008BC002F08BB002E08BA00013002
:101A2000BE070030BF3D3F08803AAE0080302E0236
:101A3000031D1C2DFF303E02031C1F2D202D2A2DBF
:101A40007F302000BD008030BC000030BB00003083
:101A5000BA00592D20003F08803AAE0080302E0297
:101A6000031D342D01303E020318372D382D432D30
:101A700000302000BD000030BC000030BB00003052
:101A8000BA00B301592D20003E08AE002E08B9005F
:101A9000FF30BA05FF30BB057F30BC050030BD0507
:101AA000391C532D542D552DBC173936AE002E0838
:101AB000BD003308AE002E08BD043D08A9003C0857
:101AC000A8003B08A7003A08A60008002100DD0096
:101AD0002000640886008701403FE600413FE700A0
:101AE00066088400670885001200253A031D792DD9
:101AF0007A2DDA2F64088600870101308107413191
:101B00000318810A2200CA01CB012100ED01EE0178
:101B1000FF30EB00FF30EC00D301D401D22D2100C7
:101B20006D1420006408860087010130810741316F
:101B30000318810AD22D2100ED14912D21006D157D
:101B4000912D2100ED15912D21006D16912D013063
:101B50002100D3000030D400D22D2000640886007C
:101B60008701403FE600413FE700660884006708C0
:101B700085000008E800E9016908003A0319C12D51
:101B8000A72D6808203A0319A12D033A0319A42DA3
:101B9000083A03199E2D063A03198F2D1D3A031991
:101BA0009B2DA72D2100530854040319D82DD92D9E
:101BB000AD2D6D1CDC2DDD2DE12DFD30ED05FF3053
:101BC000EE052000640886008701403FE600413FA3
:101BD000E700660884006708850012002E3A031D9E
:101BE000F22DF32D5B2E2100EB01EC0120006408A7
:101BF000860087010130810741310318810A64089A
:101C000086008701403FE600413FE7006608840008
:101C10006708850012002A3A031D0F2E102E272E6A
:101C20006408860087010130810741310318810A69
:101C300065088600013087000108840085010230B4
:101C40008107003F2100EB00013FEC005B2E6408A0
:101C500086008701403FF600413FF7009431CD24D4
:101C60008D3177082100EC007608EB003F2E6408E8
:101C7000860087010130810741310318810A200065
:101C8000640886008701403FE600413FE7006608A0
:101C90008400670885000008D03EE800FF30031884
:101CA0000030E900003069020A3003196802031CA1
:101CB0005A2E5B2E372E2000640886008701403F95
:101CC000E600413FE70066088400670885000008D9
:101CD000E800E9016808F6006908F7009E31E4268B
:101CE0008D3176082000EA006A082100D9005908E1
:101CF00003197B2E7C2EBF2E2000640886008701EE
:101D0000403FE600413FE700013066078400670876
:101D10000318670A85000008E800E9016808F60072
:101D20006908F7009E31E4268D3176082000EA002C
:101D30006A082100DA005A0803199F2EA02EBF2E30
:101D40002000640886008701403FE600413FE7002D
:101D500002306607840067080318670A85000008D8
:101D6000E800E9016808F6006908F7009E31E426FA
:101D70008D3176082000EA006A082100DB00663019
:101D80005906031DC42EC52E112F2000640886009D
:101D90008701403FE600413FE7006608840067088E
:101DA00085000008E80068082100DC0020006408C5
:101DB000860087010130810741310318810A6508D7
:101DC0008600013087000108840085010430810706
:101DD000003F2100D500013FD600023FD700033F5E
:101DE000D80058082000DF00210057082000DE003E
:101DF000210056082000DD00210055082000DC00ED
:101E000021005C082000E6006608E00021005D0873
:101E10008031C7208D3120005D08E5005C08E400BA
:101E2000FF2F2D30F0009830F1000230F20000302A
:101E3000F300D93091317C218D3170087104031D7C
:101E4000222F232FA22F2000640886008701403F05
:101E5000E600413FE7000130660784006708031889
:101E6000670A85000008E80068082100DC002000FF
:101E7000640886008701403FE600413FE7006608AE
:101E80008400670885000008BF3EE800FF300318A3
:101E90000030E900003069021A30031968020318A3
:101EA000522F532F662F65088600013087000108E6
:101EB0008400850104308107003F2100D500013FE7
:101EC000D600023FD700033FD800782F6508860070
:101ED0000130870001088400850104308107003F3C
:101EE0002100D500013FD600023FD700033FD800B4
:101EF0002000640886008701023081074131031801
:101F0000810A210058082000DF0021005708200026
:101F1000DE00210056082000DD00210055082000C9
:101F2000DC0021005C082000E6006608E0002100DB
:101F30005D088031C7208D3120005D08E5005C0818
:101F4000E400FF2F2000640886008701403FE60080
:101F5000413FE70066088400670885001200253AC3
:101F6000031DB32FB42FCF2F6408860087010130E3
:101F7000810741310318810A2530F0000030F1005B
:101F800021005D082000E6006608F2009131D421AE
:101F90008D3101302000E4000030E500FF2F64089F
:101FA000860087010130810741310318810AE4016D
:101FB000E501FF2F640886008701403FE600413FAE
:101FC000E70066088400670885000008E800E9016A
:101FD0006808F0006908F10021005D082000EA00AF
:101FE0006A08F2009131D4218D3120006408860006
:101FF00087010130810741310318810AC92F080088
:1020040008007108F4007008F3000C280130F00790
:102014000030F13D70088400710885001200031D32
:1020240014281528082873087002F0007408713BFE
:10203400F100080022000E118E100E108E112100E6
:102044008E010530F500DE30890B2628F50B262895
:1020540032309F316027903128309F316027903192
:102064000C309F316027903101309F3160279031CF
:1020740006309F31602790310800F800F401F50123
:102084007008F200F3017208F6007308F700781C78
:102094004C284D2851287608F4077708F53D01307F
:1020A400F635F70D890B52280310F80C7808031D38
:1020B4005C285D2849287508F1007408F0000800C0
:1020C400F100711A662867286A2822000E116C280C
:1020D40022000E15F11A6F28702872288E107328AA
:1020E4008E14711B7628772879280E107A280E14FE
:1020F400F11B7D287E2880288E1181288E15700C76
:10210400031C8E1303188E170E138E168E120800DE
:102114002200A000E330FD007D08A1002008FD009E
:102124007D08A200A401A501AA01AB012100620857
:102134002000EC00210061082000EB002130FD00AC
:102144007D08ED00223088310B20903122002408D4
:102154002007FD007D08860001308700810108000A
:102164002000A300A101A201CA282008F900FA0155
:102174007908F0007A08F1007808FB007B08F20087
:102184009131D421903101302000A1070030A23DCB
:1021940021082307F9007908860001308700010827
:1021A400FA007A08A0002008031DD928DA28B728E5
:1021B400080000307005F80000307105F900803027
:1021C4007205FA007F307305FB007B087A047904FA
:1021D4007804031DEE28EF28F7280030F3000030C0
:1021E400F2000030F1000030F00000307405F80017
:1021F40000307505F90080307605FA007F307705E8
:10220400FB007B087A0479047804031D0A290B294E
:1022140013290030F7000030F6000030F5000030DC
:10222400F40077087306031D212976087206031D3E
:10223400212975087106031D2129740870060319E4
:102244002429252927290310282903140800F60125
:10225400F31F2D292E293529F209F309F20A03194E
:10226400F30AF601F60AF11F382939293E29F00943
:10227400F109F00A0319F10A7008710403194329DA
:1022840044296D29F501F50A50290130F035F10D85
:10229400890B48290130F4007408F507F11F53290C
:1022A4005429472971087302031D5A2970087202C0
:1022B400031C5D295E2962297008F2027108F33B50
:1022C4000130F136F00C890B63290130F502031D4E
:1022D4006C296D29542976080319712972297729E3
:1022E400F209F309F20A0319F30A7308F1007208F8
:1022F400F0000800F5007508F4007408F80071088F
:10230400F7007008F6000130F2020030F33B720A65
:10231400031D9029730A031D90299129A029F00116
:10232400F101D3290130F4007408F8070130F607ED
:102334000030F73D0130F2020030F33B78088600AC
:10234400870101080319A729A829C629760884004A
:102354007708850012000319B029B129C62972082B
:1023640073040319B629B729C629760884007708A7
:1023740085000008F40078088600870101087406C7
:102384000319C529C6299429780886008701760887
:1023940084007708850000080102F000F101031CA5
:1023A400F103080072080319D829D929DE29720813
:1023B400031DDD29DE29E3297008903102209131C3
:1023C4002C2A7208083E860001308700160001049A
:1023D4000319ED29EE290E2A7208083E8600013001
:1023E4008700403FF300413FF4007208023E86003C
:1023F40001308700403FF500413FF6007608803AFF
:10240400F7007408803A7702031D0A2A73087502DC
:1024140003180D2A0E2A2C2A7008F300720886006D
:10242400013087007208023E8400013085000008F4
:102434000107F400740886000130870073088100E6
:102444007208023E86000130870001308107413165
:102454000318810A08002000AB0021006D1C332AF8
:10246400342A3D2A20002B08FC007C08F8002408AC
:102474009031B22092312000A61B412A422A472AD9
:102484002608AA002508A900492AA901AA01A7012A
:10249400A8015D2A2030F0000030F10020002B0854
:1024A400FC007C08F2009131D421923101302000EB
:1024B400A7070030A83D2808803AFC002A08803A83
:1024C4007C02031D672A29082702031C6A2A6B2A37
:1024D4004C2A21006D186F2A702A792A20002B08B3
:1024E400FC007C08F80024089031B22092312000CE
:1024F4002408F0000130F1009031032092312000D3
:1025040029087007A4002A08713DA5000800F601F7
:10251400F11F8D2A8E2A952AF009F109F00A031970
:10252400F10AF601F60AF31F982A992AA22AF20957
:10253400F309F20A0319F30A0130F4007408F606E9
:10254400F701F801700871040319A92AAA2AD92AE3
:10255400F501F50AB62A0130F035F10D890BAE2AE2
:102564000130F4007408F507F11FB92ABA2AAD2A1C
:102574000130F735F80D890BBB2A71087302031D6E
:10258400C52A70087202031CC82AC92ACE2A7008F8
:10259400F2027108F33B77140130F136F00C890B29
:1025A400CF2A0130F502031DD82AD92ABA2A76087F
:1025B4000319DD2ADE2AE32AF709F809F70A0319C1
:1025C400F80A7808F1007708F0000800FD010230ED
:1025D4007702031CEE2AEF2AF02A4E2B7703031905
:1025E400F42AF52A0E2B7608F1007508F0009031D4
:1025F400032092311030F80070087802F900710954
:102604000318890AFA00FA36F90C80307904FB00C1
:1026140000307A04FC00262B7608F1007508F000DF
:102624009031032092311030F80070087802F900DC
:1026340071090318890AFA00FA36F90CC0307904D2
:10264400FB0000307A04FC007B089F316027923144
:102654003E2B7608F9007508F8007D087807840099
:1026640079080318790A850000089F3143279231BD
:102674000130F8007808FD077608F9007508F800BD
:102684007D087807840079080318790A8500120008
:10269400031D4D2B4E2B2B2B08000310720D730DB5
:1026A400F4007408FA007A08031D592B5A2B632B83
:1026B4000030F3000030F2000030F1000030F00090
:1026C400C22B7008F4007108F5007208F600730854
:1026D400F7001F30F736F60CF50CF40C890B6C2B55
:1026E4007408F8007808F900F217FF30F005FF309D
:1026F400F105FF30F2050030F3059630FA02FA1FB7
:10270400842B852B9D2B7A08803A973E03188B2BBC
:102714008C2B8D2B5A2B0130F336F20CF10CF00C70
:10272400890B8E2B0130F4007408FA07031D9B2BD0
:102734009C2B8D2BB22B20307A02031CA22BA32BB3
:10274400AD2B5A2B0130F035F10DF20DF30D890B41
:10275400A52B0130FA027A08031DB12BB22BA42B4E
:1027640079080319B62BB72BC22BF009F109F2092A
:10277400F309F00A0319F10A0319F20A0319F30A17
:102784000800220047082000A50022004608200077
:10279400A400220045082000A300220044082000D1
:1027A400A2007308A5007208A4007108A3007008B1
:1027B400A2002208F4002308F5002408F6002508E6
:1027C400F7001730F736F60CF50CF40C890BE42BF4
:1027D400FF307405A00000307505A1002008210415
:1027E400031DF52BF62B172C2208F4002308F50003
:1027F4002408F6002508F7000130F435F50DF60D30
:10280400F70D890BFF2B7708760475047404031DF8
:102814000C2C0D2C122C0230F0000030F100412C55
:102824000330F0000030F100412C200A2104031D84
:102834001C2C1D2C3D2C2208F4002308F500240830
:10284400F6002508F7000930F435F50DF60DF70DFF
:10285400890B262C77087604750474040319332C29
:10286400352C0130362C0030F800F9017808F000DE
:102874007908F100412C0430F0000030F100080028
:10288400003020004005C80000304105C9008030F8
:102894004205CA007F304305CB004B084A04490473
:1028A4004804031D562C572C5F2C0030C300003005
:1028B400C2000030C1000030C00000304405C80030
:1028C40000304505C90080304605CA007F30470501
:1028D400CB004B084A0449044804031D722C732C92
:1028E4007B2C0030C7000030C6000030C50000302B
:1028F400C400C31F7E2C7F2C972C0030C8000030EE
:10290400C9000030CA008030CB004008C80241082A
:10291400C93B4208CA3B4308CB3B4B08C3004A08A7
:10292400C2004908C1004808C000C71F9A2C9B2C4C
:10293400B32C0030C8000030C9000030CA00803019
:10294400CB004408C8024508C93B4608CA3B4708AF
:10295400CB3B4B08C7004A08C6004908C5004808D5
:10296400C4008030C3068030C70647084302031DF5
:10297400C52C46084202031DC52C45084102031D0F
:10298400C52C440840020318C82CC92CCB2C0310B6
:10299400CC2C031408002000A201A301A001A10172
:1029A400D72C0130F6070030F73D7608840077080D
:1029B40085001200203A0319E02CE12CD32C760870
:1029C4008400770885000008F73EF800FF300318FC
:1029D4000030F90000307902053003197802031C35
:1029E400F42CF52CD32C002D01302000A000003055
:1029F400A1000130F6070030F73D352D760884003C
:102A0400770885000008F800F9017908003A0319ED
:102A14000C2D352D78082B3A0319FB2C063A031993
:102A2400F62C352D76088400770885000008F80018
:102A340020002308F1002208F0000A30F2000030E0
:102A4400F3009F317F2794317108FA0078087002EF
:102A5400F900031CFA037908303E2000A20000307C
:102A64007A3DA300FB2C76088400770885000008D3
:102A7400D03EF800FF3003180030F900003079022E
:102A84000A3003197802031C482D492D142D200007
:102A940020082104031D4F2D502D5C2D2209F80020
:102AA4002309F900F80A0319F90A7808F6007908E5
:102AB400F700602D2308F7002208F6000800220022
:102AC40043082000C000220042082000BF0022006A
:102AD40041082000BE00220040082000BD0030084C
:102AE400C0002F08BF002E08BE002D08BD003D0801
:102AF400B1003E08B2003F08B3004008B4001730EC
:102B0400B436B30CB20CB10C890B822DFF303105F5
:102B1400B50000303205B6003508813EBB00FF30F9
:102B2400363DBC003C08803AB10080303102031DC0
:102B34009D2D17303B02031CA02DA12DA22D4B2E41
:102B44002000BC1BA62DA72D042EFF30B100FF30A2
:102B5400B2007F30B3000030B4003B0AB52DB43767
:102B6400B30CB20CB10C890BB12D3408BA00330884
:102B7400B9003208B8003108B7003D083705B10084
:102B84003E083805B2003F083905B30040083A054D
:102B9400B4003408330432043104031DD22DD32D80
:102BA400D42DA12D3D08B1003E08B2003F08B3006A
:102BB4004008B4001F30B436B30CB20CB10C890B0E
:102BC400DD2D34083304320431040319EA2DEB2DCE
:102BD400F32D3708BD073808BE3D3908BF3D3A0814
:102BE400C03D3709B1003809B2003909B3003A09C8
:102BF400B4003108BD053208BE053308BF053408EA
:102C0400C005432E3D08B1003E08B2003F08B300A2
:102C14004008B4001F30B436B30CB20CB10C890BAD
:102C24000D2E3408330432043104031D1A2E1B2ED6
:102C3400242E0030C0000030BF000030BE00003041
:102C4400BD00432E3D08B1003E08B2003F08B3006A
:102C54004008B4000130B135B20DB30DB40D890B89
:102C64002D2E340833043204310403193A2E3B2E3A
:102C7400432EBF30C0008030BF000030BE000030A3
:102C8400BD004008B0003F08AF003E08AE003D085C
:102C9400AD00080077088039F80078082000A40007
:102CA4007735F8007808AB00F61F592E5A2E5B2EA4
:102CB4002B142B0803195F2E602E702E2B0A031D74
:102CC400642E652E6D2E0030F7000030F6000030C3
:102CD400F5000030F400F617F701782E0030F70005
:102CE4000030F6000030F5000030F400730880393D
:102CF400F8007808A4067335F8007808AC00F21FD1
:102D0400842E852E862E2C142C0803198A2E8B2EA5
:102D14009B2E2C0A031D8F2E902E982E0030F3002C
:102D24000030F2000030F1000030F000F217F3013F
:102D3400A32E0030F3000030F2000030F100003028
:102D4400F0007308720471047004031DAA2EAB2EE4
:102D5400C42E0030F7000030F6000030F5000030DB
:102D6400F4008030F6047F30F7042408F800780873
:102D7400F7047708F3007608F2007508F100740888
:102D8400F000FF2F2B08031DC82EC92ED22E0030B1
:102D9400F3000030F2000030F1000030F000FF2FAB
:102DA4002B08F800F9017908FB002C087802FA00D6
:102DB400031CFB037A087F3EA50000307B3DA60080
:102DC4007708A3007608A2007508A1007408A00083
:102DD4000030F7000030F6000030F5000030F40059
:102DE4000030AA000030A9000030A8000030A7007D
:102DF400AC013A2F2C080319002F012F1B2F01308F
:102E0400A035A10DA20DA30D890B022F0130F435BD
:102E1400F50DF60DF70D890B092FAA1F122F132F8D
:102E2400142F74140130A735A80DA90DAA0D890B10
:102E3400152F73082302031D292F72082202031D74
:102E4400292F71082102031D292F70082002031C59
:102E54002C2F2D2F362F2A177008A0027108A13BA2
:102E64007208A23B7308A33B0130F8007808AC0752
:102E74001A302C02031C3F2F402FFC2E230822045F
:102E8400210420040319472F482F612F2714612F91
:102E94000130F435F50DF60DF70D890B4B2FAA1FF4
:102EA400542F552F562F74140130A735A80DA90D92
:102EB400AA0D890B572FFF30A507FF30A63DF61F3B
:102EC400642F652F4A2FAC01AA1F692F6A2F862F02
:102ED400FF302705F800FF302805F900FF302905E9
:102EE400FA007F302A05FB007B087A047904780411
:102EF40003197D2F7E2F812FAC01AC0A862F741C01
:102F0400842F852F862F7E2F2C0803198A2F8B2F31
:102F1400B32F0130F4070030F53D0030F63D0030AA
:102F2400F73D771C962F972FB32F7408F800750878
:102F3400F9007608FA007708FB000130FC00FB3743
:102F4400FA0CF90CF80CFC0BA12F7B08F7007A089B
:102F5400F6007908F5007808F4000130A507003080
:102F6400A63D2608803AF80080307802031DBC2F65
:102F7400FF302502031CBF2FC02FCD2FFF302000B0
:102F8400A5000030A6000030F7000030F600003045
:102F9400F5000030F40020002608803AF800803064
:102FA4007802031DD72F013025020318DA2FDB2FF7
:102FB400E72F2000A501A6010030F7000030F6003D
:102FC4000030F5000030F400A40120002508F800CA
:102FD4007808AB002B1CEF2FF02FF22FF617F62FEB
:102FE4007F30F8007808F6052B36F8007808F700EB
:102FF4002408F8007808F704BB2E0800543465341C
:103004006D34703420343D342034253430342E343F
:1030140031346634203443340034483469346534FC
:103024007534203432343034313434343634313439
:1030340032343734003449344E34463400344E3458
:1030440041344E34003469346E34663400346E34A2
:0C30540061346E3400346C346634003497
:103DB2001030890BDA2E00320800640080010131D4
:103DC200890BDF2E00347608BF3EF800FF30773DC6
:103DD200F900003079021A30031978020318F22E22
:103DE200F32EFA2E20307604F60000307704F70026
:103DF200FA2E0800F3007308F200F20DF20D210012
:103E02001D087206833972069D001D1400002100F0
:103E12009D149D180D2F0E2F0A2F1C08F1001B0850
:103E2200F00008007008D03EF200FF30713DF30050
:103E3200003073020A3003197202031C212F232F50
:103E42000130242F0030F400F5017408F0007508E9
:103E5200F10008007008BF3EF200FF30713DF30030
:103E6200003073021A3003197202031C392F3B2FE0
:103E720001303C2F0030F400F5017408F0007508A1
:103E8200F1000800F400FA300032890B452FF001EE
:103E9200F00A7408903162209F317408F2000330F6
:103EA200F235FF3E031D512F7235F3007308F40003
:103EB200F001F00A7408903162209F310800F4008A
:103EC200FA300032890B622FF001740890316220BF
:103ED2009F317408F2000330F235FF3E031D6D2F4F
:103EE2007235F3007308F4005330890B762F00000B
:103EF200F0017408903162209F310800F401F5014D
:103F0200701C842F852F892F7208F4077308F53DE2
:103F12000130F235F30D890B8A2F0130F136F00CA6
:103F2200890B8F2F70087104031D982F992F812FF1
:103F32007508F1007408F000080080302000D706F0
:103F42005B08C3005A08C2005908C1005808C000E3
:103F52005708C7005608C6005508C5005408C400D3
:103F62008831D7209F3120004308D7004208D6006D
:103F72004108D5004008D4000800F401F40A2030BA
:103F8200700671040319C62FC72FD72F7008F73E8A
:103F9200F200FF30713DF300003073020530031967
:103FA2007202031CD52FD62FD72FF4017408F2000A
:103FB200F3017208F0007308F1000800F7007108BD
:103FC200F5007008F4007708F2007208F60076082F
:103FD200860001308700F60A7508F3007408F200C3
:103FE200F40A0319F50A72088400730885000008B0
:0E3FF200C03F8908031DFE2FFF2FE82F080097
:020000040001F9
:08000000FF3FFF3FFF3FFF3F00
:04000E00E409FF3DC5
:00000001FF
