:08000000803102288731ED2F49
:100EB400FE0012001E00FE0B5B2F00348034003451
:100EC400F0340034403400346034003430340034BE
:100ED4002034003400340034F0340034003400345E
:100EE400203400340034003404340034203400341A
:100EF400003400340434003410340034103400342A
:100F040000340034003400340034003440340034FD
:100F14007934003424340034303400341934003447
:100F24001234003402340034783400340034003491
:100F34001034003421008E018C018D01F001F10187
:100F4400403022008E00DE2F7035343E860087014B
:100F5400010822008C007035203E860087010108BC
:100F64008D007008013EF0000030713DF100F20187
:100F7400F301D12F7235483E860087010108220013
:100F84008E002930F4009430890BC62FF40BC62F41
:100F940000327208013EF2000030733DF300730822
:100FA400803AF40080307402031DDA2F0A30720292
:100FB400031CDD2FDE2FBC2F7108803AF400803033
:100FC4007402031DE72F0A307002031CEA2FEB2F73
:100FD400A62F8031022860308400873085002030BD
:100FE4008600003087003C3087315A278731F00172
:0C0FF400F101F201F301200087319C2F75
:020000040001F9
:08000000FF3FFF3FFF3FFF3F00
:04000E00C409FF3DE5
:00000001FF
