:08000000803102288731EF2F47
:100B6200FE0012001E000130FE020030FF3B7F0833
:100B72007E04031DB22D0034F5007008F100F2016D
:100B8200F135F20DF135F20DF135F20D7108073E36
:100B9200F6000030723DF700EA2D7708F200760881
:100BA200F100F135F20DF030F3002030F40071085D
:100BB200730786007208743D8700010C2200031C33
:100BC2008E1003188E140E140E10FF30F607FF302D
:100BD200F73D7008F100F201F135F20DF135F20D39
:100BE200F135F20D7708803AF3007208803A730209
:100BF200031DFD2D710876020318002E012ECE2D45
:100C02007508F100F201F135F20DF135F20DF13511
:100C1200F20D7108073EF6000030723DF7002D2EEE
:100C22007708F2007608F100F135F20DF030F300AA
:100C32002030F4007108730786007208743D870043
:100C4200010C2200031C8E1003188E140E140E10B9
:100C5200FF30F607FF30F73D7508F100F201F1357C
:100C6200F20DF135F20DF135F20D7708803AF3000D
:100C72007208803A7302031D402E7108760203182F
:100C8200432E442E112E22000E150E1108002100B3
:100C92000E108E100E1122000E108E100E1120005A
:100CA200A001A10120002008F8007808F0000F3010
:100CB2008531BD2586311130F8003A30890B5F2E1F
:100CC200F80B5F2E003201302000A0070030A13D5A
:100CD2002108803AF80080307802031D722E083015
:100CE2002002031C752E762E532E2000A201A30192
:100CF2000730F8007808F000200022088531BD2571
:100D020086311130F8003A30890B852EF80B852E8A
:100D1200003201302000A2070030A33D2308803AB0
:100D2200F80080307802031D982E07302202031C3F
:100D32009B2E9C2E792E07302000A4000030A500A7
:100D420020002408F8007808F00007308531BD251E
:100D520086311130F8003A30890BAD2EF80BAD2EEA
:100D6200003201302000A4070030A53D2508803A5A
:100D7200F80080307802031DC02E10302402031CBC
:100D8200C32EC42EA12E07302000A6000030A700DB
:100D92000F30F8007808F000200026088531BD25C4
:100DA20086311130F8003A30890BD52EF80BD52E4A
:100DB200003201302000A6070030A73D2708803A04
:100DC200F80080307802031DE82E10302602031C42
:100DD200EB2EEC2EC92E502E803102280034003426
:100DE2000034003400340034003400340034003461
:100DF2000034003400340034013400340034003450
:100E02000034003400340034003400340034003440
:100E1200003400340134003401340034003400342E
:100E22000034003400340034003400340034003420
:100E3200013400340134003401340034003400340D
:100E420000340034003400340034003401340034FF
:100E520001340034013400340134003400340034ED
:100E620000340034003400340134003401340034DE
:100E720001340034013400340134003400340034CD
:100E820000340034013400340134003401340034BD
:100E920001340034013400340134003400340034AD
:100EA200013400340134003401340034013400349C
:100EB200013400340134003401340034013400348C
:100EC200013400340134003401340034013400347C
:100ED200013400340134003401340034013400346C
:100EE200013400340134003401340034013400345C
:100EF200013400340134003400340034013400344D
:100F0200013400340134003401340034013400343B
:100F1200013400340034003400340034013400342D
:100F2200013400340134003401340034013400341B
:100F3200003400340034003400340034013400340E
:100F420001340034013400340134003400340034FC
:100F520000340034003400340034003401340034EE
:100F620001340034013400340034003400340034DD
:100F720000340034003400340034003401340034CE
:100F820001340034003400340034003400340034BE
:100F920000340034003400340034003401340034AE
:100FA200003400340034003400340034003400349F
:100FB200003400340034003400340034003400348F
:100FC200003400340034003400340034003400347F
:100FD200003400340034003400340034EF30840034
:100FE20086308500F0308600203087000130FF0017
:0E0FF20000308531B125873120008631482E30
:020000040001F9
:08000000FF3FFF3FFF3FFF3F00
:04000E00E409FF3DC5
:00000001FF
