:08000000803102288731FD2F39
:100E0C00F400FA300032890B082FF001F00A740854
:100E1C008731D52787317408F2000330F235FF3E55
:100E2C00031D142F7235F3007308F400F001F00A5F
:100E3C0074088731D52787310800F400FA30003266
:100E4C00890B252FF00174088731D5278731740859
:100E5C00F2000330F235FF3E031D302F7235F300E4
:100E6C007308F4005330890B392F0000F00174081B
:100E7C008731D5278731080022000E118E100E10F5
:100E8C008E1121008E010530F500DE30890B4C2FC0
:100E9C00F50B4C2F3230873123278731283087319F
:100EAC00232787310C308731232787310130873155
:100EBC002327873106308731232787310800873174
:100ECC0042278731F50101308731AE278731003059
:100EDC00F5008830F600873188278731C03087319C
:100EEC0023278731F501F50A04308731AE27873186
:100EFC000F30F5008830F600873188278731852F31
:100F0C0080310228FA019D2F7608F8007508F70049
:100F1C007A087707840078080318780A8500000897
:100F2C008731062787310130F7007708FA077608F2
:100F3C00F8007508F7007A0877078400780803181A
:100F4C00780A85001200031DAC2FAD2F8A2F0800E4
:100F5C00F800023075020318B42FB52FD42F1030BF
:100F6C007802031CBA2FBB2FBC2FD42F7503031987
:100F7C00C02FC12FC72F80307804F6000030F70047
:100F8C00CC2FC0307804F6000030F700760887319B
:100F9C0023278731FA300032890BD12F0800F1005A
:100FAC00711AD92FDA2FDD2F22000E11DF2F22001C
:100FBC000E15F11AE22FE32FE52F8E10E62F8E146B
:100FCC00711BE92FEA2FEC2F0E10ED2F0E14F11BD5
:100FDC00F02FF12FF32F8E11F42F8E15700C031CA4
:100FEC008E1303188E170E138E168E120800200007
:100FFC008731652F5434723461346E3420344E345E
:10100C0067346F3463342034483469346534753450
:10101C000034323431343A34353438343A343534AB
:04102C00393400341F
:020000040001F9
:08000000FF3FFF3FFF3FFF3F00
:04000E00E409FF3DC5
:00000001FF
