:08000000803102288731FD2F39
:100B4400F701F801F501F601F101F201F301F401F5
:100B540021000E108E100E118E160E178E17220005
:100B64000E108E100E117808031DB92DBA2DC52D47
:100B740020008E1EBE2DBF2DC52DF801F80A0130B0
:100B8400F3000030F4007803031DC92DCA2DD72DBE
:100B940020008E1ACE2DCF2DD72D0230F0007008F4
:100BA400F8000130F3000030F40002307806031D31
:100BB400DC2DDD2DEA2D20008E1EE12DE22DEA2D07
:100BC4000330F0007008F8000130F3000030F40046
:100BD40003307806031DEF2DF02DFD2D20008E1A15
:100BE400F42DF52DFD2D0430F0007008F8000130CF
:100BF400F3000030F40004307806031D022E032EA7
:100C0400102E20008E1E072E082E102E0530F00008
:100C14007008F8000130F3000030F4000530780665
:100C2400031D152E162E232E20008E1A1A2E1B2E6F
:100C3400232E0630F0007008F8000130F300003075
:100C4400F40006307806031D282E292E362E2000A7
:100C54008E1E2D2E2E2E362E0730F0007008F80032
:100C64000130F3000030F40007307806031D3B2EFA
:100C74003C2E462E20008E1A402E412E462EF80180
:100C84000130F3000030F40073037404031D4B2E91
:100C94004C2E8B2EF70178080319512E522E572E05
:100CA4007803031D562E572E5B2E22000E108E1035
:100CB4000E11023078060319602E612E672E033060
:100CC4007806031D662E672E6B2E22000E148E10DE
:100CD4000E11043078060319702E712E772E05300C
:100CE4007806031D762E772E7B2E22000E108E148E
:100CF4000E11063078060319802E812E872E0730B8
:100D04007806031D862E872E8B2E22000E108E1041
:100D14000E157708031D8F2E902E9B2E20000E1F7C
:100D2400942E952E9B2EF701F70A0230F300003023
:100D3400F4007703031D9F2EA02EAD2E20000E1B62
:100D4400A42EA52EAD2E0230F0007008F70002305C
:100D5400F3000030F40002307706031DB22EB32EE8
:100D6400C02E20000E1FB72EB82EC02E0330F00068
:100D74007008F7000230F3000030F4000330770607
:100D8400031DC52EC62ED32E20000E1BCA2ECB2E1D
:100D9400D32E0430F0007008F7000230F300003066
:100DA400F40004307706031DD82ED92EE62E200039
:100DB4000E1FDD2EDE2EE62E0530F0007008F70043
:100DC4000230F3000030F40005307706031DEB2EEB
:100DD400EC2EF92E20000E1BF02EF12EF92E0630EB
:100DE400F0007008F7000230F3000030F400063021
:100DF4007706031DFE2EFF2E0C2F20000E1F032F3F
:100E0400042F0C2F0730F0007008F7000230F300B5
:100E14000030F40007307706031D112F122F1C2F0A
:100E240020000E1B162F172F1C2FF7010230F30082
:100E34000030F400023073067404031D222F232FA4
:100E4400CB2FF8017708031D282F292F2F2FF50109
:100E5400F60122000E108E100E1177030319332FA2
:100E6400342F3A2F02307706031D392F3A2F5F2F84
:100E740022008E100E110E1401307602F430031984
:100E840075020318462F472F502F0130F507003005
:100E9400F63D2930890B4C2F00325F2F0330760248
:100EA400E830031975020318582F592F5D2F0E10BF
:100EB4008E100E11472FF501F60103307706031942
:100EC400642F652F6B2F04307706031D6A2F6B2F59
:100ED400902F22000E108E140E1101307602F43081
:100EE400031975020318772F782F812F0130F50726
:100EF4000030F63D2930890B7D2F0032902F0330CE
:100F04007602E830031975020318892F8A2F8E2F71
:100F14000E108E100E11782FF501F60105307706AC
:100F24000319952F962F9C2F06307706031D9B2FB0
:100F34009C2FC12F22000E108E100E150130760248
:100F4400F430031975020318A82FA92FB22F01300A
:100F5400F5070030F63D2930890BAE2F0032C12F42
:100F640003307602E830031975020318BA2FBB2F39
:100F7400BF2F0E108E100E11A92FF501F6010730A8
:100F84007706031DC62FC72FCB2F22000E108E10FD
:100F94000E1120008E1FCF2FD02FB52D00307202DE
:100FA4000F30031971020318D82FD92FE62F0130FF
:100FB400F1070030F23D2130F0007630890BE02F4C
:100FC400F00BE02F0032B52D8E1FE92FEA2FFA2FF8
:100FD40022000E148E140E155230F0002A30890BA4
:100FE400F12FF00BF12FF801F701F101F201B52D0A
:0C0FF400B52D8031022820008531A22D8F
:020000040001F9
:08000000FF3FFF3FFF3FFF3F00
:04000E00A409FF3D05
:00000001FF
