:060000000A128A11D92F3B
:100D80007E088A007F0882000A128A11C0260A1291
:100D90008A118000840A04087D0603190034FF0AC2
:100DA0000319FE0AC42E3F340034063400345B3489
:100DB00000344F340034663400346D3400347D34F4
:100DC0000034073400347F3400346F3400347E3410
:100DD00000347E3400347F3400347F3400347F3478
:100DE00000347F3400347F3400347E3400347F3468
:100DF00000347F3400347F340034463400345B34B4
:100E000000344F340034663400346D3400347D34A3
:100E10000034673400347F3400346F3400343F349E
:100E20000034063400345B3400344F34003466340C
:100E300000346D3400347D340034073400347F34A2
:100E400000346F3400343F340034063400345B34F3
:100E500000344F340034663400346D3400347D3453
:100E60000034073400347F3400346F340034831688
:100E7000031387018801850189018601F001F101D1
:100E8000C92F7008F8007807A03E8400831300087B
:100E9000831203138600F201F301B42F7208F800E5
:100EA0007807343E840083130008831203138500FF
:100EB0007208F8007807203E840000088900F401D9
:100EC000F5019F2F7408F8007807483E84008313CB
:100ED0000008831203138800F601F7018A2F7608B1
:100EE000F80078075C3E8400831300088312031324
:100EF00087007608013EF60077080318013E003EA1
:100F0000F7001130F9003A30F800F80B852FF90B93
:100F1000852F00007708803AFF0080307F02031D94
:100F2000932F0A307602031C962F972F6F2F740889
:100F3000013EF40075080318013E003EF5007508F7
:100F4000803AFF0080307F02031DA82F0630740214
:100F5000031CAB2FAC2F622F7208013EF200730806
:100F60000318013E003EF3007308803AFF00803012
:100F70007F02031DBD2F0A307202031CC02FC12F38
:100F80004E2F7008013EF00071080318013E003E2C
:100F9000F1007108803AFF0080307F02031DD22FDC
:100FA00006307002031CD52FD62F412F0A128A114A
:100FB00000288313B430FD000630FE00D330FF005C
:100FC000A03084000A128A11C4260A128A117030D5
:100FD000FD000630FE00E730FF00203084000A12DA
:100FE0008A11C4260A128A11F001F101F201F301FB
:100FF000F401F501F601F70183010A128A11372F76
:08400000FF3FFF3FFF3FFF3FC0
:04400E00C430FF3F7C
:00000001FF
