:08000000803102288731E62F50
:100A200016302100970008007108F8007008F700E0
:100A300008007108FC007008FB0008007108FA004B
:100A40007008F90008005830210099002200960132
:100A50000800FE0012001E00FE0B2A2D0034303468
:100A60003134323433343434353436343734383442
:100A700039348531642585318531232585318531AA
:100A80001025853185317D25853108002000911E96
:100A90004A2D4B2D462DFD0123009D1C502D512D1F
:100AA000532D1D121D1619080800F0012000111EFB
:100AB0005A2D5B2D622D23009E1E5F2D602D622D11
:100AC000F001F00A7008080022008C018D018E01EF
:100AD0003F3021008C0070308D008E01CF3023001C
:100AE0008E0010308D0017308C0024008D018C0199
:100AF0002100951722009D010800083023009F0067
:100B000090309D0024309E0019309B009C010030E5
:100B1000F0000030F1008531192585310030F000FA
:100B20000030F10085311E2585310030F0000030A5
:100B3000F100853114258531FD010800700871042C
:100B4000031DA32DA42DA62D22000E1070037104E9
:100B5000031DAB2DAC2DAE2D22008E100230700681
:100B60007104031DB42DB52DB72D22000E110330D5
:100B700070067104031DBD2DBE2DC02D22008E11E7
:100B8000043070067104031DC62DC72DC92D220027
:100B90000E12053070067104031DCF2DD02DD22DFD
:100BA00022008E12063070067104031DD82DD92D37
:100BB000DB2D22000E13073070067104031DE12D9A
:100BC000E22DE42D22008E13080070087104031D2D
:100BD000EA2DEB2DED2D22000E1470037104031D80
:100BE000F22DF32DF52D22008E14023070067104C3
:100BF000031DFB2DFC2DFE2D22000E15033070066B
:100C00007104031D042E052E072E22008E150430BC
:100C100070067104031D0D2E0E2E102E22000E16CE
:100C2000053070067104031D162E172E192E220092
:100C30008E16063070067104031D1F2E202E222EE4
:100C400022000E17073070067104031D282E292E6E
:100C50002B2E22008E170800853139258631F301AD
:100C6000F401853155258631003A0319382E392E85
:100C7000312E853146258631F2007308203E8600EC
:100C80008701720881007308203E860087012330A7
:100C90000106031D4C2E4D2E512E0830F30000305E
:100CA000F4000130F3070030F43D7408803AF2009C
:100CB00080307202031D5E2E08307302031C612E09
:100CC000622E312EF501F6014F3020002006031D63
:100CD0006A2E6B2E8E2E4E302106031D702E712E25
:100CE0008E2E30302206031D762E772E8E2E75081E
:100CF0002A3E8600870123080106031D802E812ECF
:100D00008E2E23302406031D862E872E8E2E7608E7
:100D1000F1007508F0008531E52586314F3020005F
:100D20002006031D942E952EAA2E4E302106031D5B
:100D30009A2E9B2EAA2E2A302206031DA02EA12E0B
:100D4000AA2E23302306031DA62EA72EAA2EFF307F
:100D500022008E004F3020002006031DB02EB12E41
:100D6000DA2E46302106031DB62EB72EDA2E463077
:100D70002206031DBC2EBD2EDA2E30302306031DA5
:100D8000C22EC32EDA2E75082A3E8600870124085B
:100D90000106031DCC2ECD2EDA2E23302506031D91
:100DA000D22ED32EDA2E7608F1007508F0008531A8
:100DB0009E2586314F3020002006031DE02EE12EB7
:100DC000FB2E46302106031DE62EE72EFB2E463075
:100DD0002206031DEC2EED2EFB2E2A302306031DCA
:100DE000F22EF32EFB2E23302406031DF82EF92EAF
:100DF000FB2E22008E01423020002006031D012F11
:100E0000022F432F4C302106031D072F082F432F9D
:100E100049302206031D0D2F0E2F432F4E3023067F
:100E2000031D132F142F432F4B302406031D192F9E
:100E30001A2F432F2A302506031D1F2F202F432F43
:100E400023302606031D252F262F432FFF30220097
:100E50008E00A330F2005530890B2C2FF20B2C2F73
:100E6000000022008E01A330F2005530890B362F8E
:100E7000F20B362F0000853155258631003A0319D3
:100E8000422F432F262F423020002006031D492FDA
:100E90004A2FD22F4C302106031D4F2F502FD22F17
:100EA00049302206031D552F562FD22F4E302306D0
:100EB000031D5B2F5C2FD22F4B302406031D612FA7
:100EC000622FD22F30302506031D672F682FD22FB7
:100ED00075082A3E8600870126080106031D712F2A
:100EE000722FD22F23302706031D772F782FD22F72
:100EF0007608F1007508F0008531E5258631A330CC
:100F0000F2005530890B822FF20B822F00007608F9
:100F1000F1007508F00085319E258631A330F2007E
:100F20005530890B912FF20B912F00007608F100BC
:100F30007508F0008531E5258631A330F200553083
:100F4000890BA02FF20BA02F00007608F100750886
:100F5000F00085319E258631A330F2005530890B93
:100F6000AF2FF20BAF2F00007608F1007508F000EC
:100F70008531E5258631A330F2005530890BBE2F2F
:100F8000F20BBE2F00007608F1007508F0008531E5
:100F90009E258631A330F2005530890BCD2FF20B00
:100FA000CD2F00000130F5070030F63D7608803A7D
:100FB000F20080307202031DDF2F08307502031C1F
:100FC000E22FE32F642E2F2E803102282F30840051
:100FD000853085002A308600003087000A30853150
:100FE00029258731FD01A001A101A201A301A401CE
:100FF000A501A601A701A801A901200086312C2E78
:020000040001F9
:08000000FF3FFF3FFF3FFF3F00
:04000E00E43FFF3F8D
:00000001FF
