:08000000803102288731EF2F47
:100CE400FE0012001E000130FE020030FF3B7F08B0
:100CF4007E04031D732E003421000E108E100E117D
:100D040022000E108E100E11F901FA01B52EFB010E
:100D1400FC01A22E7B08F8007808F00079088631DF
:100D2400C42686312130F8007630890B972EF80BD3
:100D3400972E00327B08013EFB0000307C3DFC0016
:100D44007C08803AF80080307802031DAB2E0A300C
:100D54007B02031CAE2EAF2E8C2E7908013EF900C7
:100D640000307A3DFA007A08803AF8008030780240
:100D7400031DBE2E0A307902031CC12EC22E892EF9
:100D840080310228F5007008F100F201F135F20D0E
:100D9400F135F20DF135F20D7108073EF600003021
:100DA400723DF700F12E7708F2007608F100F13574
:100DB400F20D5030F3002130F400710873078600FF
:100DC4007208743D8700010C2200031C8E10031866
:100DD4008E140E140E10FF30F607FF30F73D700826
:100DE400F100F201F135F20DF135F20DF135F20DAC
:100DF4007708803AF3007208803A7302031D042FC7
:100E0400710876020318072F082FD52E7508F100F4
:100E1400F201F135F20DF135F20DF135F20D7108F3
:100E2400073EF6000030723DF700342F7708F200D9
:100E34007608F100F135F20D5030F3002130F40062
:100E44007108730786007208743D8700010C220044
:100E5400031C8E1003188E140E140E10FF30F607A8
:100E6400FF30F73D7508F100F201F135F20DF1356F
:100E7400F20DF135F20D7708803AF3007208803AEA
:100E84007302031D472F7108760203184A2F4B2F54
:100E9400182F22000E150E110800003400340034FF
:100EA400003400340034003400340034003400349E
:100EB400003401340034013400340134003400348B
:100EC400003400340034013400340134003401347B
:100ED400003401340034013400340034003400346C
:100EE400003401340034003400340034003401345C
:100EF400003400340034013400340034003400344D
:100F0400003400340034003400340134003401343B
:100F1400003400340034013400340134003400342B
:100F2400003400340034013400340134003400341B
:100F3400003400340034013400340034003401340B
:100F440000340034003400340034013400340034FC
:100F540000340034003401340034003400340134EB
:100F640000340034003400340034003400340034DD
:100F740000340034003401340034003400340034CC
:100F840000340034003401340034013400340134BA
:100F940000340134003401340034003400340034AB
:100FA400003400340034003400340034003400349D
:100FB400003400340034013400340034003400348C
:100FC400003400340034003400340134003400347C
:100FD400003400340034013400344F30840087304E
:100FE400850050308600213087000030FF00A0309B
:0C0FF400863172268731200086317E2E67
:020000040001F9
:08000000FF3FFF3FFF3FFF3F00
:04000E00E409FF3DC5
:00000001FF
