:08000000803102288731EF2F47
:100D1200FE0012001E000130FE020030FF3B7F0881
:100D22007E04031D8A2E0034FA0079088631AA2631
:100D3200863178088631AA26863177088631AA2636
:100D420086317A088631AA26863122000E150E11C6
:100D52000800F4007408F000F101F035F10DF035EF
:100D6200F10DF035F10D7008073EF5000030713DD0
:100D7200F600D72E7608F1007508F000F035F10D77
:100D82005030F2002030F3007008720786007108BC
:100D9200733D8700010C2200031C8E1003188E1471
:100DA2000E140E10FF30F507FF30F63D7408F00008
:100DB200F101F035F10DF035F10DF035F10D760858
:100DC200803AF2007108803A7202031DEA2E70081E
:100DD20075020318ED2EEE2EBB2E080021000E1018
:100DE2008E100E1122000E108E100E1105302000F2
:100DF200A0000030A100492F0930A2000030A3005A
:100E02003F2F0530A4000030A500352F0930A60081
:100E12000030A7002B2F2208FB007B08F7002408D4
:100E2200FC007C08F8002608FD007D08F900200877
:100E32008631952686311130FB003A30890B1F2FFF
:100E4200FB0B1F2F003220002608FF3EA600FF30BA
:100E5200273DA700A71F2E2F2F2F0C2F2408FF3E60
:100E6200A400FF30253DA500A51F382F392F072FDD
:100E72002208FF3EA200FF30233DA300A31F422F02
:100E8200432F022F2008FF3EA000FF30213DA1008A
:100E9200A11F4C2F4D2FFD2E80310228003400342B
:100EA20000340034003400340034003400340034A0
:100EB200003400340134003401340034013400348D
:100EC200003400340034003401340034013400347E
:100ED200013400340134003401340034003400346D
:100EE200003400340134003400340034003400345F
:100EF200013400340034003401340034003400344E
:100F0200003400340034003400340034013400343E
:100F1200013400340034003401340034013400342C
:100F2200003400340034003401340034013400341D
:100F3200003400340034003401340034003400340E
:100F420001340034003400340034003401340034FD
:100F520000340034003400340134003400340034EE
:100F620001340034003400340034003400340034DE
:100F720000340034003400340134003400340034CE
:100F820000340034003400340134003401340034BD
:100F920001340034013400340134003400340034AC
:100FA200003400340034003400340034003400349F
:100FB200003400340034003401340034003400348E
:100FC200003400340034003400340034013400347E
:100FD2000034003400340034013400344F308400D3
:100FE2008730850050308600203087000030FF00B7
:0E0FF200A03086318926873120008631EF2E0F
:020000040001F9
:08000000FF3FFF3FFF3FFF3F00
:04000E00E409FF3DC5
:00000001FF
