:08000000803102288731EF2F47
:100CF000FE0012001E000130FE020030FF3B7F08A4
:100D00007E04031D792E003421000E108E100E116A
:100D100022000E108E100E11F901FA017908F80068
:100D20007808F00000308631D42686311130F80082
:100D30003A30890B992EF80B992E00320130F907C1
:100D40000030FA3D7A08803AF80080307802031DBE
:100D5000AB2E09307902031CAE2EAF2E8E2E013041
:100D6000FB000030FC00F0017B088631D426863180
:100D70001130F8003A30890BBB2EF80BBB2E003235
:100D80000130FB070030FC3D7C08803AF8008030E1
:100D90007802031DCD2E09307B02031CD02ED12EEC
:100DA000B32E8C2E80310228F5007008F100F2017C
:100DB000F135F20DF135F20DF135F20D7108073E06
:100DC000F6000030723DF700012F7708F200760838
:100DD000F100F135F20D6030F3002130F4007108BC
:100DE000730786007208743D8700010C2200031C03
:100DF0008E1003188E140E140E10FF30F607FF30FD
:100E0000F73D7008F100F201F135F20DF135F20D08
:100E1000F135F20D7708803AF3007208803A7302D8
:100E2000031D142F710876020318172F182FE52EB3
:100E30007508F100F201F135F20DF135F20DF135E1
:100E4000F20D7108073EF6000030723DF700442FA6
:100E50007708F2007608F100F135F20D6030F3000A
:100E60002130F4007108730786007208743D870012
:100E7000010C2200031C8E1003188E140E140E1089
:100E8000FF30F607FF30F73D7508F100F201F1354C
:100E9000F20DF135F20DF135F20D7708803AF300DD
:100EA0007208803A7302031D572F710876020318E7
:100EB0005A2F5B2F282F22000E150E110800003428
:100EC0000034003400340034003400340034003482
:100ED0000034003400340034003400340034003472
:100EE0000034003400340034003400340034003462
:100EF0000034003400340034003401340034003451
:100F00000034003400340034003400340034003441
:100F10000034003400340134003400340034003430
:100F20000034003400340034003400340034003421
:100F30000034013400340034003400340034003410
:100F40000034003400340034003400340034013400
:100F500000340034003400340034003400340034F1
:100F600000340034003400340034013400340034E0
:100F700000340034003400340034003400340034D1
:100F800000340034003401340034003400340034C0
:100F900000340034003400340034003400340034B1
:100FA00000340134003400340034003400340034A0
:100FB0000034003400340034003400340034013490
:100FC0000034003400340034003400340034003481
:100FD00000340034003400340034003400345F3016
:100FE0008400873085006030860021308700003023
:100FF000FF00903086317826873120008631842E9C
:020000040001F9
:08000000FF3FFF3FFF3FFF3F00
:04000E00E409FF3DC5
:00000001FF
