:08000000803102288731FD2F39
:100D1E007108F4007008F300982E0130F0070030CF
:100D2E00F13D70088400710885001200031DA02E8D
:100D3E00A12E942E73087002F0007408713BF1001E
:100D4E0008008631FD2686310030F5008830F60029
:100D5E00F701F70AF801F80A8731482786310F3074
:100D6E00F5008830F600F701873196278631BE2EC2
:100D7E0080310228F400FA300032890BC32EF001C4
:100D8E00F00A74088731202786317408F200033088
:100D9E00F235FF3E031DCF2E7235F3007308F400BB
:100DAE00F001F00A74088731202786310800F4001C
:100DBE00FA300032890BE02EF001740887312027BB
:100DCE0086317408F2000330F235FF3E031DEB2E20
:100DDE007235F3007308F4005330890BF42E0000C3
:100DEE00F0017408873120278631080022000E1189
:100DFE008E100E108E1121008E010530F500DE30A2
:100E0E00890B072FF50B072F32308631DE26863100
:100E1E0028308631DE2686310C308631DE2686314C
:100E2E0001308631DE26863106308631DE26863169
:100E3E000800F100711A242F252F282F22000E11E1
:100E4E002A2F22000E15F11A2D2F2E2F302F8E1035
:100E5E00312F8E14711B342F352F372F0E10382F44
:100E6E000E14F11B3B2F3C2F3E2F8E113F2F8E1554
:100E7E00700C031C8E1303188E170E138E168E1203
:100E8E0008002000A2010230780203184F2F502FC5
:100E9E00952F10307702031C552F562F572F952F55
:100EAE00780303195B2F5C2F622F80307704A0002C
:100EBE000030A100672FC0307704A0000030A100E1
:100ECE0020088631DE268731FA300032890B6C2FEE
:100EDE00842F7608FA007508F90022087907840035
:100EEE007A0803187A0A850000088631C1268731F0
:100EFE000130F90079082000A2077608FA0075087B
:100F0E00F90020002208790784007A0803187A0A6B
:100F1E0085001200031D942F952F702F0800FD01E0
:100F2E0002307702031C9C2F9D2F9E2FFC2F7703E0
:100F3E000319A22FA32FBC2F7608F1007508F0001D
:100F4E0086318F2687311030F80070087802F9004C
:100F5E0071090318890AFA00FA36F90C80307904FF
:100F6E00FB0000307A04FC00D42F7608F1007508DF
:100F7E00F00086318F2687311030F8007008780225
:100F8E00F90071090318890AFA00FA36F90CC03013
:100F9E007904FB0000307A04FC007B088631DE26E3
:100FAE008731EC2F7608F9007508F8007D08780770
:100FBE00840079080318790A850000088631C12655
:100FCE0087310130F8007808FD077608F9007508BA
:100FDE00F8007D087807840079080318790A8500DF
:100FEE001200031DFB2FFC2FD92F08002000863185
:100FFE00A82E5434723461346E3420344E34673437
:10100E006F346334203448346934653475340034B5
:10101E00323432343A34343436343A343534393472
:02102E0000348C
:020000040001F9
:08000000FF3FFF3FFF3FFF3F00
:04000E00E409FF3DC5
:00000001FF
